:020000041000EA
:10000000002008205D0100101B0100101D010010E0
:100010001101001011010010110100101101001058
:100020001901001019010010190100101F01001022
:10003000110100101901001021010010230100100E
:100040001101001011010010110100101101001028
:100050001101001011010010110100101101001018
:100060001101001011010010110100101101001008
:1000700011010010110100101101001011010010F8
:1000800011010010110100101101001011010010E8
:1000900011010010110100101101001011010010D8
:1000A00011010010110100101101001011010010C8
:1000B00011010010110100101101001011010010B8
:1000C00011010010110100101101001011010010A8
:1000D0001101001011010010110100101101001098
:1000E0001101001011010010110100101101001088
:1000F0001101001011010010110100101101001078
:100100001101001011010010110100101101001067
:10011000EFF30580103800BE00BE00BE00BE00BE7A
:1001200000BE00BEF2EB8871F4750010147600106A
:10013000A001001090A31AE7D3DEFFFF42012110B7
:10014000FF01000080860000793512AB4FF00000FF
:100150001E49086006C881F3088810474FF05040D8
:10016000006810B14FF00000F2E70DA40ECC00299A
:1001700002D000F012F8F9E71549164A002000E015
:1001800001C19142FCD11449884714498847144958
:10019000884700BEFDE701C901C29A42FBD3704700
:1001A0001476001010010020B4120020B88700104F
:1001B0000000082000000820B88700100010082068
:1001C00000100820000000007047000008ED00E06B
:1001D000B4120020C022022009460010650200105F
:1001E00001460010F8B500BF064B0749C91A89102F
:1001F00048BF0131491003D0044B0BB101481847E7
:10020000704700BFB4120020B412002000000000AC
:1002100008B5054B1BB105490548AFF30080BDE8A3
:100220000840FFF7E1BF00BF00000000B41E00203F
:100230003472001070B5192002F06EFF4FF0010506
:10024000192345EC44304FF00006192445EC40409A
:10025000642002F059FA46EC4040642002F054FA5F
:10026000F3E700BF00B583B004F0C6FA00234FF0F7
:10027000010C4FF48072CDE900C30349034802F03A
:10028000DDF802F005F9FEE73472001035020010C7
:10029000704700BF704700BF0A4B93F90020002A47
:1002A0000FDB4FF050410123D1F8880193401842F1
:1002B00007D04FF0E0224FF08050C1F88C31C2F8E7
:1002C000040D704708120020002300B583B001938D
:1002D00000F062FA019B002BFCD003B05DF804FB38
:1002E00010B502F0E1FA044601F012FB28B14FF01C
:1002F000E0234FF08052C3F8042D2046BDE81040A3
:1003000002F068BB10B504224FF0E0240023226104
:100310000520A36102F020FE0721044BA3FB00236C
:100320009B09013B6361216110BD00BFD34D621089
:100330004FF0E0234FF07F42002130B585B00391AC
:10034000C3F81C2DD3F81C3D1B0E8DF807309DF80B
:1003500007309DF807301A060CD5039B0133039331
:100360009DF807305B00DBB28DF807309DF8073051
:100370001B06F2D4039B082B40D0039BC3F1070359
:100380001B0203F4E0634FF050412548254A036007
:1003900012780B689A4233D04FF0E02300244FF0DC
:1003A0005045D3F8202D204942F47F02C3F8202D78
:1003B0000E20C3F81C4D03F0EDFD1C490B2003F08B
:1003C000E9FD1B4B2A68FF211A2043F8224003F065
:1003D0004DF81A20174902F025FF01211A2002F0DA
:1003E000DFFE00F0D1F9286801F0ACFB029400F0C8
:1003F000D3F9029B002BFCD005B030BD0023C2E72F
:10040000FFF780FF4FF0E022D2F8203D0A4943F089
:100410007F43C2F8203D0F2003F0BCFDBCE700BFC6
:10042000B421022009120020C10700105908001051
:10043000AC21022099020010E102001008B500F082
:10044000ABF9BDE80840FFF773BF00BF4FF0E023F2
:100450004FF08052C3F8042DBFF34F8FBFF36F8F5F
:10046000704700BF836913F8023C662B00D07047C9
:100470004FF0E023D3F8882D42F47002C3F8882DA2
:10048000D3F8342F42F04042C3F8342F00F060B963
:100490002DE9F04F4FF0113E4FF0807440E909E331
:1004A0004FF0073340F8044C164C40F8343C40E918
:1004B00003424FF005334FF006324FF0123B40E954
:1004C0000F324FF0033A4FF002394FF001384FF03E
:1004D00010374FF009364FF008354FF004346FF005
:1004E000020340E905AB40E9078940E90B6740F8A2
:1004F000305C40F8404C40F8443C40F8481DBDE8B2
:10050000F08F00BFC902001070B50E2002F0D6FDBA
:100510000F2002F0D3FD0121032003F0D1FD02469C
:1005200001234FF05041002452B2084E9340084D31
:1005300032700848C1F88C31C1F884312C7003F056
:100540009BFDFFF7F5FE204670BD00BF081200209E
:10055000091200203D040010EFF305830F2B84BF28
:10056000014A9B5C704700BFF0E300E0094B1B7839
:10057000FF2B0BD0EFF30583DBB22BB14FF05042D2
:10058000106800EB4300704701F0D0BD4FF05043BE
:10059000186870470912002010B51F4B8E461B7853
:1005A00082B0FF2B2ED04FF0010C02681B4BD21AE9
:1005B0001B4BA3FB02131B0903EB4303A2EBC30278
:1005C0000CFA02F140BF00240368C3E88F4F8EF39A
:1005D0001088EFF30583134ADBB2106823B902B029
:1005E000BDE8104000F0DCB901AA019400F00CFA5B
:1005F000019B2BB14FF0E0234FF08052C3F8042D44
:1006000002B010BD40BF00230268C2E88F3F81F3F3
:10061000108802B010BD00BF09120020241600206F
:10062000ABAAAAAA302202202DE9F041364C064698
:1006300094F800C00F46BCF1FF0F14461D4682B06F
:1006400050D003F09BFB40F2E733B4EB000C65EBBA
:1006500001011CEB030041F10001B0F57A7F71F15B
:100660000003D6F800801DDA0023C8E88F3F87F327
:100670001088264B5A6A95420DD94FF0E0234FF06F
:100680008052C3F8042DBFF34F8FBFF36F8F00204C
:1006900002B0BDE8F0819B6AA34230D3012002B0D2
:1006A000BDE8F0814FF47A72002306F089FD00283E
:1006B000DAD00023C8E88F3F87F31088012200902A
:1006C00031681348091A1348A0FB0160000900EBC8
:1006D0004000A1EBC001104802FA01F1006800F0EF
:1006E00007F9C6E700230268C2E88F3F81F310884C
:1006F0002046294602B0BDE8F04103F0BBBA95425E
:10070000BBD00120CBE700BF0912002000000B4046
:1007100024160020ABAAAAAA3022022008B500F0B5
:10072000D9F8014B186008BD3022022001234FF098
:100730005042034991F900108B40C2F88031704754
:10074000081200200000000000000000000000006F
:100750000BA10CC9126853F82210086806C881F36F
:100760000B88022181F31488203080F30988BFF3BD
:100770006F8F4FF0000080F311881047AFF30080B7
:10078000000000D0F41E002062B661B6BFF34F8FA8
:10079000BFF36F8F66DF00BFEFF311804FF0A00152
:1007A00081F31188BFF34F8FBFF36F8F704700BF86
:1007B00080F31188BFF34F8FBFF36F8F704700BF77
:1007C000EFF309811EF0100F08BF21ED108AEFF33F
:1007D0000B82734621E9FC0F55FC084457FC096461
:1007E00059FC0A8401E9F00319A00CC8106853F8F9
:1007F000203019604FF0A00181F31188BFF34F8FB3
:10080000BFF36F8F01F09EF94FF0000080F3118865
:100810000FA10CC9126853F8221008681838B0E804
:10082000F00345EC004447EC016449EC0284B0E875
:10083000FC0F13F0100F08BFB0EC108A82F30B8886
:1008400080F30988184700BFAFF30080AFF3008042
:10085000000000D0F41E00201EF0040F0CBFEFF3C8
:100860000880EFF309800149084700006504001083
:100870002DE9F84307460D4600F10C0901F034F864
:100880003B683C692B43A1453B601ED04FF00008FC
:1008900009E036B1D30148BF48EA050801F068FF16
:1008A0003B68A1450FD020460268646822F07F456E
:1008B00012F0806F43F0007105EA0306E9D0B542FB
:1008C000E8D0A145EFD123EA08033B60BDE8F84337
:1008D00001F012BF10B51C2003F06EFC044620B1DD
:1008E000002340F8043B00F09DF8204610BD00BFF7
:1008F0002DE9F04180460D461E46174600F0F4FFF4
:10090000D8F8004004EA050356B933B33FB324EAEC
:100910000505C8F8005001F0EFFE2046BDE8F08163
:100920009D42F3D0069BD3B1391E18BF01211A4650
:10093000090641F08061294308F1040001F0E2FA60
:1009400001F0DAFE30B302F077F88301044611D5E6
:1009500024F07F442046BDE8F081069B23B901F0D6
:10096000CBFE2046BDE8F081391E18BF01211A4692
:100970000906E0E701F05AFCD8F8004005EA040354
:100980005EB923B11FB124EA0505C8F8005001F093
:10099000D5FFDDE701F038FCD5E7AB42F7D1F1E751
:1009A0002DE9F84307460D4600F10C0900F09CFFC5
:1009B0003B683C692B43A1453B601ED04FF00008CB
:1009C00009E036B1D30148BF48EA050801F0D0FE7E
:1009D0003B68A1450FD020460268646822F07F453D
:1009E00012F0806F43F0007105EA0306E9D0B542CA
:1009F000E8D0A145EFD123EA08033B6001F07CFE7B
:100A00003868BDE8F88300BF8C4600B586461346BB
:100A10007146624602485DF804EB02F01DBA00BF61
:100A2000710800104FF0FF31002200F10803C0E907
:100A30000131C0E903330260704700BF0023036146
:100A4000704700BF10B4D0E9003294680133C1E9A7
:100A50000124616091605DF8044B08610360704798
:100A600030B40D686B1C10D000F108031C465B68A5
:100A70001A68AA42FAD902684B60013299608C6008
:100A80006160086130BC0260704704696368F2E726
:100A90000346026910B45468406899689C428160BA
:100AA000486008BF5160002110685DF8044B0138B0
:100AB00019611060704700BF70B51646026C04469D
:100AC000856B2AB9066801354EB31046A56370BD23
:100AD0008EB9406806F0B8FA6368216CA2680B44CE
:100AE0009342636028BF236805F1010528BF636056
:100AF0000020A56370BDC06806F0A6FA226CE3680A
:100B000051429B1A2268E360934202D2A3680B44CD
:100B1000E360022E08D001350020A56370BD806817
:100B200001F014FBA660D1E7012D38BF0125DFE7F6
:100B30002DE9F043064685B001F078FB96F8453084
:100B40005DB2002D1CDD06F1240708E0A26BE36B0B
:100B500003969A423DD36B1EDAB25DB282B1B46C99
:100B6000002CF3D1736A5BB1384601F069FA0028B2
:100B7000F1D001F0D1FA6B1EDAB25DB2002AEED1EB
:100B8000FF2386F8453001F0D9FE01F04FFB96F8BF
:100B900044305CB2002C14DD06F1100503E0631E46
:100BA000DAB25CB26AB133695BB1284601F048FA47
:100BB0000028F4D001F0B0FA631EDAB25CB2002A69
:100BC000F1D1FF2386F8443005B0BDE8F04301F0D1
:100BD000B5BE94F84580226CA36B4FFA88F803F1F8
:100BE00001099AB92368002B3FD0B8F1FF3FC4F840
:100BF00038902ED1636A002BADD004F1240001F0AF
:100C00001FFA0028A7D001F087FAB4E7606803A9AB
:100C100006F01AFA6368226CC4F838901344A2688C
:100C2000636093420ED32368B8F1FF3F6360E1D065
:100C300000F068FE40458ED908F101035BB284F8EC
:100C4000453088E7B8F1FF3FF2D1636A002B82D0CC
:100C5000D3E700F057FE8045BFF47DAF08F10108EF
:100C60004FFA88F884F8458075E7A068019301F091
:100C70006DFA019BB8F1FF3FC4F83890A36081463C
:100C800008D1636A9BB9B9F1000F3FF464AF01F07A
:100C900043FA70E700F036FE4045F4D908F101034D
:100CA0005BB284F84530B9F1000FF0D153E704F19D
:100CB000240001F0C5F900287FF45BAFE3E700BF33
:100CC000F0B5846C83B0A26BE36B01909A4203D3BE
:100CD0000025284603B0F0BD94F84560226CA76B50
:100CE00076B2E2B1606801A906F0AEF96268236CE1
:100CF0001A44A36862609A4201D3236863600025A6
:100D00000137731CA76313D1636A002BE1D004F190
:100D1000240001F095F9002818BF0125D9E72568BE
:100D2000002DECD1A06801F011FAA5600546E7E7B7
:100D300000F0E8FD8642CCD2013676B284F84560F8
:100D4000C7E700BFF8B5C0B31746A1FB00230546AF
:100D50000E4693BB01FB00F010F1550F2DD8543017
:100D600003F02AFA044640B356B300F15403C4E931
:100D70000F56236001F05AFA0025FF23216CA5636A
:100D800084F8443084F84530E36B226801FB03F3B8
:100D9000591A626013440A44C4E9023204F1100093
:100DA000FFF740FE04F12400FFF73CFE01F0C6FD12
:100DB00084F850702046A564F8BD00242046F8BD94
:100DC0000346D4E72DE9F843044690461D460F46F6
:100DD000FFF7C2FB01F068FDA26BE36B06469A4287
:100DE00008D3022D06D00024304601F0F3FD204642
:100DF000BDE8F883394694F845702A4620467FB20C
:100E0000D4F83890FFF758FE7B1C17D1A36CFBB1C8
:100E1000022D02D1B9F1000F09D12046FFF750FF92
:100E200028B1B8F1000F02D00123C8F80030012426
:100E3000304601F0CFFD2046BDE8F88300F062FDAA
:100E40008742F4D201377FB284F845700124EFE77E
:100E5000636A002BEBD004F1240001F0F1F80028C4
:100E6000DFD1E4E7F0B5044685B00F46019201F00A
:100E7000DDF9A56B002D53D1019BA3B302A801F0AE
:100E80003FF92E4601F05AFD00F02EFD01F0CEF99B
:100E900094F84430FF2B08BF84F8446094F8453040
:100EA000FF2B08BF84F8456001F048FD01A902A8A6
:100EB00001F0A8FCE0B901F0B9F9A36B2BBB01F07C
:100EC0003DFD019904F1240001F002F82046FFF7EE
:100ED0002FFE01F011FC00B301F0A8F9A56BFDB9DC
:100EE000019B002BCED101F029FD002005B0F0BD03
:100EF0002046FFF71DFE01F0FFFB01F097F9A36B01
:100F0000002BF0D001F01AFDE6E701F017FD2046B6
:100F1000FFF70EFE01F0F0FBDEE701F075F9DBE70D
:100F2000226C5AB1E168A36811449942E16028BF7C
:100F30002168384628BFE16006F086F82369013D44
:100F4000A56323B901F0FAFC012005B0F0BD04F15E
:100F5000100001F075F80028F4D001F055F9F1E720
:100F6000002955D0444B5A68904272D01A6810B488
:100F7000002A2CD0DA6890427BD09A68002A41D0AF
:100F80005A69904273D01A69002A42D0DA699042B5
:100F900065D09A69002A42D05A6A904244D01A6AAF
:100FA000002A45D0DA6A90425BD09A6A002A44D07F
:100FB0005A6B904257D01A6B002A43D0DA6B90429A
:100FC00053D09B6B002B42D05DF8044B7047DA681E
:100FD00090424ED05A69904249D01A46DC69A042EC
:100FE0003DD05C6AA0421FD0DC6AA04239D05C6B65
:100FF000A04238D0DC6BA04237D0C2E900105DF8C7
:10100000044B70475A69904231D003F10802E5E77A
:101010007047DA69904222D003F11002E1E75A6A80
:10102000904201D0154ADFE7042203EBC202E4E755
:10103000DA6A904215D0124AD9E75A6B904212D020
:10104000104AD7E7DA6B90420FD00F4AD5E70F4A24
:10105000D3E7002203EBC202C2E90010704703226B
:10106000E3E70522E1E70622DFE70722DDE70222C8
:10107000DBE70122D9E700BF40140020581400200C
:1010800060140020681400207014002078140020E0
:1010900070B504460E46154601F0C8F894F8443081
:1010A000FF2B04BF002384F8443094F84530FF2B15
:1010B00004BF002384F8453001F040FCA36B23B14A
:1010C0002046BDE87040FFF733BD04F124002A46F6
:1010D000314600F067FF2046BDE87040FFF728BDAD
:1010E000064C08B5FFF7B2F92368022B00D8FEE7DB
:1010F000FFF7ACF92368022BFAD8F8E7101F00209D
:10110000F8B5836B002B02DB836B012B16DD324CB1
:10111000036B26685A1E276823689B6B002B03DB32
:1011200023689B6B012B0ADD6668656863689B6BAF
:10113000002B03DB63689B6B012B20DDF8BD274987
:101140000D68002DF0D1FF6B336B07F001069B1B80
:101150009A42E9DB4668F607E6D5D4F804C067682A
:101160006268926B002A1ADB6268926B012A16DCB5
:101170004E68A6B91A46FD6BDCF8303007E0174917
:101180004B68002BDAD1336B4FF0FF36ED6B05F077
:1011900001055B1B934219DD0136CFD000254FF0CE
:1011A00050431B689D420DD054F825309B6B023391
:1011B000C4D02846FFF7BAFA6FF0010254F8253080
:1011C0009A63F8BD012341F82530F8BD43689B07B9
:1011D000E2D50125E3E700BFF41E0020B022022083
:1011E0004FF050411B4B0A6853F8220000282CD0C6
:1011F00053F82200013843F822000A6853F82230DD
:101200001BBB10B51449154B53F822400B78013B1A
:10121000DBB20B702BB9124800F81230114AC2E849
:101220008F3F4FF050424B781068013BDBB24B7060
:1012300033B90B4A0C4902EB40025370C1E88F3FAF
:101240000020FFF7B5FA0CB910BD7047BDE810409B
:10125000FFF7FCB8AC210220A8210220B022022016
:10126000A421022032160020331600202DE9F84375
:101270009600804630460D46994602F09DFF0028B4
:1012800000F0888007467C2002F096FF0446002884
:101290007DD07C22002105F089FE3246A52138460A
:1012A000676305F083FE636B043E1E4426F0070669
:1012B000002D3ED02B7884F84030002B36D06B7850
:1012C00084F8413093B3AB7884F8423073B3EB7851
:1012D00084F8433053B32B7984F8443033B36B79BB
:1012E00084F8453013B3AB7984F84630F3B1EB7929
:1012F00084F84730D3B12B7A84F84830B3B16B7A95
:1013000084F8493093B1AB7A84F84A3073B1EB7A00
:1013100084F84B3053B12B7B84F84C3033B16B7B6A
:1013200084F84D3013B1AB7B84F84E30002384F841
:101330004F30089D04F108001F2D28BF1F2525638D
:10134000A565FFF77BFBC5F1200504F11C00FFF745
:1013500075FB4B4642463046616BE5616461A462B1
:10136000FFF796F84FF0FF320C4B20609845A263D0
:1013700008D00B4B984505D0099B03B11C60204653
:10138000BDE8F883E36B43F00103E363F4E7384619
:1013900002F0A0FF00242046BDE8F883911700105A
:1013A000E11000104FF05042504B12682DE9F04709
:1013B000DFF844914E4CDFF8448153F822604D4DE4
:1013C00040E0DFF83CA10020FFF7F2F9FFF7E4F975
:1013D0004FF050431B68DAE8CF2F0121002A01D1DA
:1013E000CAE8421FBFF35F8F002A50D15B00012281
:1013F000434462705A704FF050431A68D5E8CF3FAB
:101400000121002B01D1C5E8431FBFF35F8F73B1EA
:1014100018F81230002B4BD1D5E8CF1F012300293B
:10142000FAD1C5E8413F0029F6D1BFF35F8F012310
:10143000237008F812304FF050431A6849F82270B0
:10144000002F40D0B36B02334ED14FF050410A68A9
:1014500059F822706FB1002349F8223023780A68C6
:10146000013BDBB2237023B908F81230C5E88F3F87
:101470000A686378013BDBB26370002BA1D108EBF3
:101480004202DFF87CA05370CAE88F3F9BE708EB6D
:10149000430252785B0012BBDAE8CF1F0122002919
:1014A000FAD1CAE8412F0029F6D1BFF35F8F9EE73A
:1014B00023780133DBB223704FF050431A6849F8A8
:1014C0002270002FBED11A682378013BDBB2237053
:1014D000002BB7D108F81270C5E88F7F6FE76378EB
:1014E0000133DBB2637086E7BDE8F087F41E0020AD
:1014F000A821022032160020AC210220A4210220C3
:1015000033160020F8B5FFF747F94FF05042064672
:10151000354B1268D3E8CF1F0120002901D1C3E861
:10152000410FBFF35F8F314D00293ED151000123A0
:101530002F4C294463704B702E4F3B68002B45D0D5
:101540004FF050432C4A1968D2E8CF3F0120002BBE
:1015500001D1C2E8430FBFF35F8F73B115F81130AB
:10156000002B3CD1D2E8CF0F01230028FAD1C2E8EA
:10157000403F0028F6D1BFF35F8F0123237005F8A9
:1015800011304FF050413B6801333B6023780968CC
:10159000013BDBB223701BB905F81130C2E88F3F65
:1015A0003046BDE8F840FFF703B9510005EB4202B1
:1015B000527872B9D3E8CF0F01220028FAD1C3E8DC
:1015C000402F0028F6D1BFF35F8FB0E7FFF7EAFEA8
:1015D000B6E7074C63780133DBB26370ACE723787E
:1015E0000133DBB22370CCE733160020A4210220A4
:1015F000A8210220D4210220321600202DE9F84330
:10160000594C5A4E5A4FDFF88091DFF88081236899
:10161000002B37D0FFF7C0F8336893B14FF0504339
:101620001B6857F82320002A3BD04FF0504157F851
:101630002320013247F823200B6857F82330012B71
:1016400028D0236803B34B4BDB68DD68AB6B0133F9
:1016500040F0838005F10800FFF71AFA464A136844
:10166000013B13602368013B236033680BB1FFF734
:10167000B7FD686B02F02EFE284602F02BFE2368B1
:10168000002BC7D1BDE8F8833368002BBFD0FFF72C
:10169000A7FDBCE7D9F80030002BD2D1FFF782FEBE
:1016A000CFE7D8E8CF2F0121002A01D1C8E8421F97
:1016B000BFF35F8F002A32D1304A590001233048EE
:1016C000114443704B704FF050452E4B2968D3E8BE
:1016D000CFCF5FF0010EBCF1000F01D1C3E84CEF9A
:1016E000BFF35F8FBCF1000F11D012F811C0BCF135
:1016F000000F26D1D3E8CFCF0125BCF1000FF9D1DF
:10170000C3E84C5FBCF1000FF4D1BFF35F8F01233E
:101710004FF05045037002F811302B6885E7174AE7
:10172000590002EB43035B788BB9D8E8CF0F012354
:101730000028FAD1C8E8403F0028F6D1BFF35F8FF8
:10174000BCE703780133DBB203702B686DE70C480C
:1017500043780133DBB24370B5E73368002B91D097
:10176000BDE8F843FFF73CBDD021022070220220E3
:10177000AC21022090220220CC210220A4210220B0
:10178000A821022032160020D42102203316002086
:1017900008B5FEF75BFE044CFFF730FF2368022B11
:1017A000FAD9FEF753FEF7E7101F00202DE9F84F96
:1017B0004FF05045464A474B474C0F46D4F800A0DF
:1017C000464ED2F800800446D3F80090FEF7E4FFBE
:1017D0002B6856F823B0FEF7EBFF00238BF8793027
:1017E000FEF7DAFF2B6856F823B0FEF7E1FF0BF1A6
:1017F0000800FFF74DF9631C00D18FBB4FF0504537
:101800001AEB04042CBF01270027FEF7C5FF2B6845
:1018100056F823A0FEF7CCFFCAF8084097B9FEF7A8
:10182000BBFF2B6856F82350FEF7C2FF404605F178
:101830000801FFF715F92A4B1A68A24288BF1C60FD
:10184000BDE8F88FFEF7A8FF2B6856F82340FEF797
:10185000AFFF484604F10801BDE8F84FFFF700B9B3
:10186000204C6768FEF798FF2B6856F82380FEF738
:101870009FFFC8F80C70FEF78FFF2B6856F8238087
:10188000FEF796FFBB68C8F81030FEF785FF2B689F
:1018900056F82380FEF78CFFBA6808F108035360FE
:1018A000FEF77AFF2B6856F82380FEF781FF08F1D8
:1018B0000803BB60FEF770FF2B6856F82350FEF755
:1018C00077FF2368AC6101332360BDE8F88F00BF68
:1018D000001F0020081F0020A4220220F41E002068
:1018E000482202207C220220024B1B6803B9704769
:1018F000FFF708BE70220220014B1868704700BF36
:10190000A4220220014B1868704700BFCC2102209E
:10191000814B2DE9F0471B685BBB804B1D6801358F
:101920001D6075B3DFF81882D8F80030AB4240D99B
:101930007B4C7C4D2B681B6B03EB830354F82330EB
:10194000012B6B681B6B03EB830354F8233040F2CD
:101950008F80012B4FF050431E6840F2A380002E71
:1019600000F0CB802B689B6B023300F0AE8001242B
:101970009EE000246C4A1368013313602046BDE8E2
:10198000F0876A4B6A4A18681168196069491060E3
:101990000A6801320A601A681268002A74D14FF08E
:1019A000FF33DFF89C81C8F80030D8F80030AB4234
:1019B000BED8DFF87891D9F800301B68002B00F012
:1019C0009E800026564C5C4F44E09969D3E9032A77
:1019D000C2F808A0CAF804204A68184662450A6896
:1019E00008BFC1F804A0013A9E610A60D96A71B1CA
:1019F000D3E9082AC2F808A0CAF804204A68724548
:101A00000A6808BFC1F804A0013ADE620A601A6BD6
:101A1000D7F800E002EB8201724504EB810E88BF2B
:101A20003A60DEF80420D2F808A0DA60C3F810A00B
:101A3000CAF804C0C2F808C054F82120C3F818E05E
:101A4000013244F82120FFF75BFBD9F800301B6816
:101A5000002B55D0D9F80030DB68DB689A6803F1B9
:101A6000080C954203F11C0EAFD2C8F8002060E7C5
:101A7000012B11D94FF05042304B16681B6823B32D
:101A8000002E7FF46FAF38E01B68DFF8B480DB68AE
:101A90001B68C8F8003047E74FF05041274B0E68ED
:101AA0001A6872B136B32B689B6B023308D00024DE
:101AB0000020FEF73BFE6FF001022B689A6324B909
:101AC0001E4B5C68002C3FF459AF012E1DD0002442
:101AD0004FF050431B68012B1BD06B689B6B02338C
:101AE0003FF44CAF0120FEF721FE6FF001026B685E
:101AF0009A6343E7114B5B683BB10124E8E7084C6C
:101B00004FF0FF33C8F8003013E701242046BDE84A
:101B1000F0870A4A536031E7D4210220A422022030
:101B2000101F0020F41E002058220220001F002059
:101B3000081F00204C220220DC210220B0220220BB
:101B4000482202204FF050432DE9F04F1B68044615
:101B5000DFF8889283B0D9E8CF2F0121002A01D184
:101B6000C9E8421FBFF35F8FDFF87482002A4DD1AE
:101B70005A000123944E4244737053704FF0504307
:101B8000DFF860B21A68DBE8CF3F0121002B01D1FA
:101B9000CBE8431FBFF35F8F7BB118F81230002BE7
:101BA00040F0E580DBE8CF1F01230029FAD1CBE824
:101BB000413F0029F6D1BFF35F8F0123337008F84E
:101BC0001230824B1B68002B33D001214FF0504361
:101BD0007F4A42F82410D3F800C03378013BDBB2CF
:101BE00033701BB908F81C30CBE88F3F4FF05042E0
:101BF00073781268013BDBB2737023B908EB4202C1
:101C00005370C9E88F3F03B0BDE8F08F5A0008EB6E
:101C100043035B78002B40F0AF80D9E8CF1F01234E
:101C20000029FAD1C9E8413F0029F6D1BFF35F8FFF
:101C30009FE7674A674D42F82430FEF7ADFD4FF04D
:101C400050431B6855F82370FEF7B2FD7B6B1A6892
:101C5000B2F1A53F08D15A68B2F1A53F04D19A6804
:101C6000B2F1A53F00F0AA804FF05047FEF794FD77
:101C70003B6855F823A0FEF79BFDFEF78DFD3B6802
:101C800055F82370FEF794FD38460AF14001FEF73F
:101C9000FFFADFF854A15049DAF8007055F8243003
:101CA0009A6955F824301B6B03EB830301EB830324
:101CB0009A4270D00121484A07EB870302EB830365
:101CC0001A680833A14062B9DAF80020143B013ADF
:101CD000CAF80020002F59D053F8082C013F002AE1
:101CE000F2D09C46DCF8040060452ED0BE4606E0EB
:101CF00055F824309A4231D04068604524D0C268FB
:101D0000936B5F1CF4D157683942F5D094461A465C
:101D10004FF0504355F824108A6355F82400CCF84E
:101D2000384045F824C0D3F800C050B18369076B30
:101D30000193294B07EB870103EB8101019B8B4248
:101D400054D055F82C3048E77746ACF1140CEFB17D
:101D50005CF8083C013F002BF7D0C3E753681942F9
:101D6000CAD04FF050439463D3F800C0E9E733780A
:101D70000133DBB2337024E7134E73780133DBB2E7
:101D80007370FBE60123124A42F82C304FF05043A7
:101D9000D3F800C0D5E755F824000830FEF778FEE8
:101DA00055F8243055F82410186B0B4B00EB8000CD
:101DB00003EB80000831FEF745FE7BE7DB68B3F1FB
:101DC000A53F7FF451AF64E7A8210220D42102206F
:101DD000B0220220F41E0020101F00203316002025
:101DE000A421022032160020DC210220C16B4368AE
:101DF00001F0010123FA04F0791AC70704D555F858
:101E00002400406823EA00039C0703F0030054D534
:101E100068686C68006BE46B03F0010304F0010474
:101E2000001B88422CDB002B8BD02B6828681B6B97
:101E3000C06B00F001001B1A994282DD2B689B6B7E
:101E4000002BFFF67EAF2B689B6B012B38DD013238
:101E50003FF477AF0124644594D055F824309B6B50
:101E600002333FF46EAF2046FEF760FC6FF00101D5
:101E70004FF0504355F824209163D3F800C060E739
:101E80006C68A46B002CCEDB6C68A46B012CCADCE4
:101E90000E4C6468002CC6D1002BDBD02B6829685F
:101EA0001B6BC96B01F001015B1A9842D2DD2B68F4
:101EB0009B6B002BCEDB0122C5E70028B5D140E7A4
:101EC000024B1C68002CC6D0C1E700BFB022022024
:101ED00070B50C460546FEF75FFC4FF05042084BCC
:101EE000126853F82260FEF763FC284606F11C01D5
:101EF000FEF7B6FD2046BDE870400121FFF756BC55
:101F0000F41E00202DE9F8434FF050460F460446DA
:101F10009046234DFEF740FC336847F0004755F8E4
:101F20002390FEF745FCC9F81C706768FEF734FC87
:101F3000336855F82390FEF73BFCC9F82070FEF794
:101F40002BFC336855F82390FEF732FCBB68C9F8C8
:101F50002430FEF721FC336855F82390FEF728FC67
:101F6000BA6809F11C035360FEF716FC336855F894
:101F70002390FEF71DFC09F11C03BB60FEF70CFC6F
:101F8000336855F82350FEF713FC012123684046BF
:101F90000B44EC622360BDE8F843FFF707BC00BFC9
:101FA000F41E00202DE9F0474FF050460446174636
:101FB0008946D0F80480214DFEF7EEFB336855F8D2
:101FC00023A0FEF7F5FBCAF82080FEF7E5FB336897
:101FD00055F823A0FEF7ECFBD8F80830CAF82430F7
:101FE000FEF7DAFB336855F823A0FEF7E1FBD8F8DB
:101FF00008200AF11C035360FEF7CEFB336855F846
:1020000023A0FEF7D5FB0AF11C03C8F80830FEF741
:10201000C3FB336855F82350FEF7CAFB2368002F33
:1020200003F10103EC62394608BF4846236018BF3C
:102030004FF0FF30BDE8F047FFF7B8BBF41E0020BB
:1020400070B50025C368D868C36AD0E90842A260A9
:1020500054605C6800F11C018C42244C08BF5A603B
:102060001A682468013AC5621A60002C32D1D0E99E
:10207000031283698A605160596800F10805A9421A
:1020800008BF5A601A681A49013A1A60036B0A6855
:102090009342184A88BF0B6003EB83034FEA830C1B
:1020A00002EB83035C6852F80C10A6680131C4602F
:1020B00006617560A560836142F80C10FFF720F897
:1020C0004FF050420C4B126853F82200003818BFF2
:1020D000012070BD094B5C68A268C0E908425160EC
:1020E0001A68A1600132C3621A60E7E7D4210220B6
:1020F000DC210220101F0020B02202205C220220DE
:10210000034A044B12681B68C0E90023704700BFF4
:102110004C220220A42202204FF050420121024B07
:10212000126843F822107047B022022010B5FEF763
:1021300033FB4FF05042044B126853F82240FEF735
:1021400037FB204610BD00BFF41E002058B1C36D00
:10215000016B826D013B914270B50446C36500D0AE
:102160001BB1002070BD0020704700F10805284613
:10217000FEF78EFC204AA36D116823638B4288BF53
:1021800013601E4AC3F1200003EB83034FEA830C64
:1021900002EB8303E061586852F80C108668E06037
:1021A000266175608560A361A36B0131002B42F845
:1021B0000C1002DBA36B012B01DD012070BD4FF081
:1021C0005043A26B1B689A4210D0A36B0C4D55F87C
:1021D00023309B6B0233F0D0A06BFEF7A7FA6FF0B1
:1021E0000102A36B55F823309A63E6E70121A26B45
:1021F000044B43F82210E0E7DC210220101F0020EE
:10220000F41E0020B02202204FF05043054A1B6804
:1022100052F8232022B10121034A42F823107047CB
:10222000FEF714B9AC210220B022022038B5FEF727
:10223000B3FA3E4B1B6893B14FF050433C4A1B68C6
:1022400052F82310A1B14FF0504052F82310013141
:1022500042F82310036852F82330012B00D038BD18
:10226000344B1B68002BFAD1BDE83840FFF79AB811
:102270003149D1E8CF0F0124002801D1C1E8404FF6
:10228000BFF35F8F002831D12C484FEA430C012364
:102290002B4984444B708CF801304FF0504C294B43
:1022A000DCF80040D3E8CF5F5FF0010E002D01D1D4
:1022B000C3E845EFBFF35F8F85B110F81450002DD0
:1022C00027D1D3E8CFCF0125BCF1000FF9D1C3E866
:1022D0004C5FBCF1000FF4D1BFF35F8F01234FF0CF
:1022E00050450B7000F814302B68ACE713484FEAE8
:1022F000430C00EB43035B7893B9D1E8CF4F012344
:10230000002CFAD1C1E8443F002CF6D1BFF35F8F17
:10231000BDE70B780133DBB20B70DCF8003092E7DD
:1023200007494B780133DBB24B70B6E770220220CD
:10233000AC210220D421022033160020A421022047
:10234000A8210220321600202DE9F0410546FFF7B2
:102350006DFF2E4A2E4F1368013313603B6853B351
:102360002C4E2D4B05F108041A6801322A651A60BB
:102370002A4A2B6B11688B4288BF136003EB8303DF
:10238000980006EB830359683258D1F808C0D7F893
:1023900000E00132E960C5F810C0CCF804408C6060
:1023A000AB613250BEF1000F2CD13B6843B3BDE8A6
:1023B000F041FEF715BF1368164E012BD1D13446FC
:1023C00006F5207820461434FEF72CFB4445F9D15D
:1023D000DFF86480124C4046FEF724FB2046FEF7EF
:1023E00021FB1048FEF71EFB0F48FEF71BFB0F48B2
:1023F000FEF718FB0E4BC3F800800E4B1C60B0E7D5
:10240000BDE8F0812846FEF77BFECEE7CC21022016
:1024100070220220101F0020D8210220DC2102207F
:102420001C2202205C220220902202207C22022018
:10243000001F0020081F00200822022010B582B0D3
:10244000049C0094059C0194FEF710FF38B14FF0F6
:10245000FF324260FFF778FF012002B010BD4FF05D
:10246000FF3002B010BD00BF10B582B0049C0094D4
:10247000069C0194FEF7FAFE30B1059A4260FFF720
:1024800063FF012002B010BD4FF0FF3002B010BD5D
:102490000023F0B53024264A264E87B0CDE90162EC
:1024A00025484FF4807202A90093ADF80C40FEF766
:1024B000DDFE20B14FF0FF324260FFF745FF3123D0
:1024C000002432681D4D8DF80C301D4B94631D485F
:1024D0000193009423462A6002A94FF48072FEF70C
:1024E000C5FE88B14FF0FF374760FFF72DFF01228F
:1024F00073689A636B6000F069FC012805460BD095
:10250000114B1B6807B0F0BD012273689A636B60C2
:102510000D4B1B6807B0F0BDFEF73EF90B490C4AA6
:102520000C4B0F6015601C60FDF7EEFFE8E700BF85
:1025300049444C453822022091170010F41E002017
:102540003C220220E1100010D87300104822022023
:1025500070220220A42202202DE9F047FFF766FE38
:102560004FF05040574A584913680568013B1360C3
:102570004B780068013BDBB24B7033B9534901EB38
:1025800040014B705249C1E88F3FD2F800C0BCF106
:10259000000F6ED14F4B1C68002C62D04E4F3B6831
:1025A000002B48D0DFF848E14C4EFB68DB68DA6A64
:1025B000D3E9081088604160516803F11C04A1420E
:1025C000116808BF50600139C3F82CC011609969C7
:1025D000D8681A694C688260506003F10800844230
:1025E00008BF4A600C681A6BDEF80080013C424567
:1025F00002EB820A0C603ED906EB8A046168CEF8D1
:102600000020D1F8088056F82A20D960C3F810803D
:10261000C8F8040088609C613B68013246F82A20B3
:10262000002BC2D12E4B1A681268002A43D14FF0FA
:10263000FF322C4B1A60DFF8BC80D8F80040002C29
:1026400032D00127284EFFF763F908B146F825700C
:10265000013CF8D1C8F8004056F82540003C18BFAE
:102660000124224B1B680BB1FEF7BAFD2046BDE8E2
:10267000F0870024F5E706EB8A04616856F82A2003
:10268000D1F80880D960C3F81080C8F804008860C9
:102690009C613B68013246F82A20002B85D1104B03
:1026A0001A6812683AB9C2E70F4E56F82540003C46
:1026B00018BF0124D5E71A680A4BD26812681A605D
:1026C000B9E700BFD4210220A8210220A4210220C2
:1026D00033160020CC2102205C220220101F002093
:1026E000001F002048220220B02202207022022077
:1026F000DC21022058220220024B186800B97047E2
:10270000FFF72ABF7022022020B582B038B1154DE4
:102710002B68DBB90021FFF749F82B688BB94FF024
:102720005043114A1B6852F823202AB101210F4A55
:1027300042F8231002B020BD02B0BDE82040FDF7F2
:1027400085BEFFF709FF0028E9D0F3E70190FEF707
:10275000D9FE00210198FFF729F82B68002BDED065
:10276000EFE700BF70220220AC210220B02202203D
:10277000F8B5D0E901520027036941F0004101603A
:102780005968C4688142AA60556008BF5A601A68D7
:10279000D4E90361013A07611A60A36904F10805ED
:1027A0005A68B160AA421A684E6008BF596012495F
:1027B000013A1A60236B0A689342104A88BF0B6083
:1027C00003EB8303980002EB830359688E68E16092
:1027D000266175608D601158A36101311150FFF7BA
:1027E00025FD2046FEF78CFC054B1B681BB1BDE8A0
:1027F000F840FEF7F5BCF8BDDC210220101F0020D8
:10280000702202202DE9F84F04464FF05047DFF8C0
:1028100094A00D46204EFFF709FDDAF80090D4F899
:102820000480FDF7B9FF3B6856F823B0FDF7C0FF01
:102830009BF8793023BB2B685A1C18D0174A2168A3
:102840001068814206D06168494503D800232B6097
:1028500001240DE0A9EB08018B42F7D91168A3EB25
:102860000903DAF8002043442B60C4E90012002475
:102870000B4B1B680BB1FEF7B3FC2046BDE8F88F8D
:10288000FDF78AFF3B6856F82340FDF791FF0023D0
:1028900084F87930DCE700BFF41E00204C220220CF
:1028A00070220220A42202201F4B186800B9704732
:1028B00070B5FDF771FF4FF050421C4C136854F88F
:1028C000231029B154F82320013244F8232070BD8D
:1028D0001749D1E8CF5F0126002D01D1C1E8456F2E
:1028E000BFF35F8F4DB9134D012213490A7005F8EC
:1028F00013204FF050431B68E4E70E4D15F81360AA
:102900005EB9D1E8CF6F0122002EFAD1C1E8462F7F
:10291000002EF6D1BFF35F8FE6E707490B7801334E
:10292000DBB20B701368CDE770220220AC210220CD
:1029300032160020A4210220A82102201E4B1B6871
:10294000002B34D04FF050411C4B0A6853F8220042
:1029500000282CD053F82200013843F822000A68DE
:1029600053F822301BBB10B51549164B53F82240C3
:102970000B78013BDBB20B702BB9134800F8123017
:10298000124AC2E88F3F4FF050424B781068013B2B
:10299000DBB24B7033B90C4A0D4902EB4002537065
:1029A000C1E88F3F0020FDF703FF0CB910BD704751
:1029B000BDE81040FDF74ABD70220220AC21022084
:1029C000A8210220B0220220A421022032160020D9
:1029D00033160020134B1B6803B970474FF050416A
:1029E000114B0A6810B453F82240C4B153F8224086
:1029F000013C43F822400A6853F822307BB90B4966
:102A00000B78013BDBB20B702BB9094C094904F878
:102A10001230C1E88F3F5DF8044BFDF7C9BE5DF889
:102A2000044B704770220220AC210220A821022012
:102A3000A421022032160020F8B54FF05046FDF7D1
:102A4000ABFE0D4D336855F82340FDF7B1FEE76945
:102A5000FDF7A2FE336855F82340FDF7A9FE246B6D
:102A6000FDF79AFE3368C4F1200455F82350FDF7B2
:102A70009FFE3846EC61F8BDF41E00202DE9F04FB2
:102A8000B74FDFF8E4B2DFF8E482B64D87B03B68B9
:102A90001C68002C40F01D81FEF726FFFEF72CFF7E
:102AA000DBF800308146834248D8D8F80030CBF8B4
:102AB00000001A68B2FA82F252092868A4EB0901F0
:102AC000FEF7E6FAFFF718FE002800F02481002345
:102AD000CDE90233CDE904330022286802A9FEF7CC
:102AE000C1F90028D3D0029B0498002BC0F2E980E2
:102AF000DDF810A0DAF814301BB10AF10400FDF77C
:102B0000C7FFFEF7F9FEDBF800300190984243D38F
:102B1000DDE90123013BCBF80020082BDCD8DFE8FE
:102B200003F06161C0A5C76161C0A50022F0010288
:102B30008AF828205046DAF8203098473B681A680F
:102B4000002A00F0D880DA68D2F80CA014680AF1E4
:102B500004063046FDF79CFF9AF828205107E5D57A
:102B600003E05046DAF820209047DAF81820CAF837
:102B700010A01119A418CAF80410F2D33146D8F8DD
:102B80000000FDF76DFFD5E721F0010189F828105D
:102B90004846D9F8203098473B681968002900F06A
:102BA000B480D968D1F80C900C6809F1040630465D
:102BB000FDF76EFF99F828104807E5D503E0484671
:102BC000D9F820108847D9F81810C9F810900819BA
:102BD0006418C9F80400F2D33146D8F80000FDF7B4
:102BE0003FFFD5E79AF828000399DAF81840019AD0
:102BF0000B1940F001068AF828602CBF0126002638
:102C00009342CAF80430CAF810A000F28780511A23
:102C10008C423FD8410712D420F001008AF82800E6
:102C20005046DAF82030984756E78C4200F2C680CA
:102C3000DAF82030504698473346DAF81840019ABF
:102C4000E6182CBF01200020B242A2EB0301CAF813
:102C50000460CAF810A0E8D29A4201D20028E7D056
:102C600038680AF10401FDF7FBFED9E70399019AE0
:102C70009AF82830881843F0010390428AF82830E7
:102C8000CAF81810CAF80400CAF810A04BD80029D6
:102C90003FF422AFD8F800000AF10401FDF7E0FE8E
:102CA0001AE79AF8283023F001038AF8283013E74E
:102CB0009AF828309A0777D523F001038AF828304C
:102CC0000AE7039B05999847029B002BFFF604AF88
:102CD0000EE7DB681C68FEF707FEFEF70DFEDBF86B
:102CE0000030814683423FF629AF8442CBF8000092
:102CF0001FD90022E1E6D8F80020CBF800903A6016
:102D0000C8F80030FFF7F8FCE1E6D8F80010C8F882
:102D100000303960FCE6FFF777FAD8E6914202D935
:102D2000002E3FF477AF38680AF10401FDF798FEF2
:102D3000D2E6FFF7E1FC3B68DB68DE68331D18462E
:102D40000193FDF7A5FE96F82820530716D422F02C
:102D5000010286F828203046336A9847B7E600BF5C
:102D6000FC1E0020A8220220402202200C1F00206E
:102D700081421DD83046316A88475446B169A9EB73
:102D8000040014EB010A2CBF01230023CA45C6F836
:102D900004A03661ECD94C4501D9002BEAD0019949
:102DA0003868FDF75DFED6E7504601F093FA93E6EA
:102DB0000199D8F80000FDF753FECCE7D8F80000E1
:102DC0000AF10401FDF74CFE2AE700BFF0B5194CEB
:102DD00085B0FFF72BFA25689DB1FFF7AFFD20689E
:102DE00068B14FF0FF351F241349002302914FF4BF
:102DF0008062CDE9004511491148FFF735FB05B068
:102E0000F0BD104E104F3046FDF70CFE3846FDF772
:102E100009FE0E4A0E4B176010212A460A201E603A
:102E2000FDF790FF20600028D7D00A49FEF798F8F8
:102E3000D3E700BFA8220220AC220220407200107B
:102E40007D2A0010E0210220F42102200C1F002026
:102E5000FC1E0020387200109C46F0B507460E4656
:102E600015466FF00104074B85B069466246186845
:102E70000023CDE9017603950094FDF7A3FF05B08B
:102E8000F0BD00BFA822022000EB400C4FEA8C0CE2
:102E90000CF1804C0CF5803CF0B51646DCF80420B3
:102EA000051FB2F5803F38BF4FF48032EDB238BF16
:102EB000CCF80420012D2AD94FF40067254C0CF5DD
:102EC0004052176054F82020B2B9DCF80020012DE0
:102ED00082EA461202F0E0020CF5805632602AD9EE
:102EE0004FF4006144F820304FF480330CF5005269
:102EF0001160CCF80430F0BD6769B7FBF2FE0EF14B
:102F0000010E0EEB4E0EBEF1030EFCD2DDE70129E1
:102F1000D2D103240CF540521460DCF80820D2070B
:102F2000FBD5DCF800200B4C82EA461202F0E002EE
:102F30000CF5805632600122DCF800504D4005F05F
:102F40000305356002FA01F1DCF808200A42FBD0E3
:102F5000C6E700BF481A0020014B53F82000704715
:102F6000481A00200FB400B583B0049C074801F054
:102F700087FC3CB105A92046019101F027FB0448DC
:102F800001F07EFC012001F039FB00BF4872001007
:102F900058720010EFF3108072B6064BD3E8CF1FC3
:102FA00001220029FAD1C3E8412F0029F6D1BFF34D
:102FB0005F8F70472F1600200023034AC2E88F3F1F
:102FC00080F31088704700BF2F16002070B586462A
:102FD000EFF3108572B6124CD4E8CF6F0120002EAB
:102FE000FAD1C4E8460F002EF6D1BFF35F8F4FF041
:102FF000010CC80801F007030CFA03F31EF800C027
:103000001CEA030608D14CEA030C0EF800C0C4E821
:103010008F6F85F3108870BD1046FFF7A3FF00BFC8
:103020002F160020F8B5EFF3108772B61C4ED6E8C5
:10303000CF5F0124002DFAD1C6E8454F002DF6D10F
:10304000BFF35F8F9A421BD8012502E00132934201
:1030500022D3D40810F804E002F0070C05FA0CFCA7
:103060001EEA0C0FF2D14EEA0C0E00F804E01046F6
:103070000023C6E88F3F87F31088984207DBF8BD2E
:103080000023C6E88F3F87F310884FF0FF300029F8
:10309000F5D00698FFF766FF4FF0FF30E8E700BF76
:1030A0002F160020044A1078431CDBB2182B28BFCF
:1030B00010231370704700BF0A1200200146024A15
:1030C0000248FFF783BF00BF5C720010401A002067
:1030D00010B5054C82B001461F2318220094034806
:1030E000FFF7A0FF02B010BD7C720010401A002054
:1030F0004FF0E022936843F000539360704700BFA5
:103100000021044B03F12002C3E88F1F01339342D7
:10311000FAD170472416002030B44FF0000343EC7E
:10312000440043EC400005254FF480740B4BC20073
:1031300053F8201003EB800081F0400102F180433E
:1031400003F5203301F0C00200F5805100F5405036
:103150000A605D60046030BC704700BF04800340BB
:103160004FF0E0234FF08032C3F80024C3F804246A
:10317000C3F80824C3F80C24C3F81024C3F814249B
:10318000C3F81824C3F81C24C3F82024C3F824244B
:10319000C3F82824C3F82C24C3F8302462B670473F
:1031A000012300F01F029340400941B1800000F16B
:1031B000604000F56140C0F8803103607047024A0A
:1031C000203042F82030704700E100E00123064A39
:1031D000410952F8212000F01F0003FA00F01040CE
:1031E000003818BF0120704700E100E001224309C8
:1031F000034900F01F008240403341F8232070470C
:1032000000E100E0054A10309268054B52F82000BA
:10321000C01A2F288CBF00200120704700ED00E06D
:103220000C120020F8B50D46EFF3108772B6124E5F
:10323000D6E8CF2F0123002AFAD1C6E8423F002A60
:10324000F6D1BFF35F8F0D4B00F110049B680C4A61
:1032500053F82430934203D0994201D001F08EF804
:10326000064B9B6843F82450BFF35F8F0023C6E8EA
:103270008F3F87F31088F8BD2D16002000ED00E089
:10328000110100102DE9F04F81468B46164683B0A0
:10329000EFF3108372B6DFF8D0A10093DAE8CF1F06
:1032A00001230029FAD1CAE8413F0029F6D1BFF332
:1032B0005F8F664B93F90040002CC0F2A080644DF4
:1032C00004EB440705EB870898F8061009F110098C
:1032D0001970604BBF009B6853F829006300411BC5
:1032E0002F292FD95C49884240F0A4801C445B4BB5
:1032F00002372F44043BDB1BC3F34A036FEAC3438B
:103300004FF421416FEAD34325F8241005EB8404E0
:1033100063804BF60153A380FF2348F00100E67160
:10332000C4F808B0A3714B4B9B6843F82900BFF366
:103330005F8F0023CAE88F3F009B83F3108803B0A0
:10334000BDE8F08F20F0010E9EF80710B1422ED894
:103350004FF42143EB53414BB91C2944043B043740
:103360005B1A2F44AEF10401C91BC1F34A043C4966
:10337000C3F34A030B432143A8F804103949A8F8C2
:1033800002304AF6AA2073465B1B5B415843000D8E
:1033900088F8076088F80600C8F808B048F001000F
:1033A000CEF80010BFE7D179B1422ED996469EF9EA
:1033B00006C00CEB4C02BCF1000F05EB8202F2DA06
:1033C0004BF601510EF10402A8F10407BF1AC7F32E
:1033D0004A076FEAC7476FEAD7478EF8064003EB04
:1033E0000408204C05EB8803AEF8047045F828402B
:1033F000998083F806C0DE71C3F808B093E700F047
:10340000BDFF124B93F9004059E7724632F8041F92
:10341000490514D44915023102EB410101916FF0C5
:103420000701C91B019F491B3944C1F34A0141F4FB
:103430006041C9E7019300F0A1FF019B56E701F548
:10344000FF1101F5FF511F31E4E700BFBB2202204D
:103450000C12002000ED00E0110100103C120020D1
:1034600000E0FFFF014880472D1600204FF0FF0CC1
:1034700020F0030303F1604303F5644300F003000D
:103480001A68C0000CFA00FC22EA0C0281400A43D0
:103490001A607047F0B5EFF30585EDB2EFF3108CCD
:1034A00072B62649D1E8CF2F0123002AFAD1C1E80C
:1034B000423F002AF6D1BFF35F8F214E40F0010E4C
:1034C000B4684AF6AA2354F825701E4A0446A41A82
:1034D000644163431B0D77455BB21BD092F90640F4
:1034E0009C421CD092F912409C4223D092F91E407B
:1034F0009C4221D092F92A409C4208BF03240FD05D
:10350000114A0024157813708571C1E88F4F8CF330
:103510001088F0BDB2680D4C42F82540F0E7002459
:1035200004EB440402EB8402FF2494714BF6015433
:103530009480E5E70124F3E70224F1E72D1600204B
:1035400000ED00E00C120020BB220220110100104F
:1035500010B5074C82B001460523002200940548AF
:10356000FFF760FD0028A8BFC0F1330002B010BD16
:1035700098720010BF220220014B0B440360704779
:1035800024160020F8B5124C124DAC4211D24FF067
:10359000FF36002723686BB1FFF784FD0146204604
:1035A000FFF7EAFF66602772BFF35F8F0C34AC420F
:1035B000F0D3F8BDFFF776FD01462046FFF7DCFFAC
:1035C0006660BFF35F8F0834AC42E3D3F8BD00BF41
:1035D000A4120020B412002010B50446FFF762FDCB
:1035E00001462046FFF7C8FF4FF0FF336360BFF38B
:1035F0005F8F10BD10B504460120FFF769FD034B36
:1036000003442360BFF35F8F10BD00BF241600206A
:10361000024B0B440360BFF35F8F704724160020FA
:103620002DE9F04F2DED028B85B0EFF30583DBB272
:10363000103B9A0818BF01224FF0010103F0030B61
:1036400018BFAF4DAF4B08BFAF4D0BEB820253F825
:10365000226001FA0BF205F541539FEDA78B019211
:103660005A602FE0B3881C0440F19380B379002B9B
:1036700040F0DD80B6F90820002AC0F21E8173698F
:1036800002EB420203EBC203D3E90247B7F1FF3F6B
:1036900008BFB4F1FF3F0ED005EB8B01AB6A0A699E
:1036A000D21AE31A934205D301232A6A03FA0BF3D1
:1036B000134200D10C61284600F058FBA042B941EA
:1036C000C0F2FB80B6F90830019A002B0093EA6340
:1036D000C8DBD6F8148003EB4309284608EBC9077A
:1036E000D7E9024A00F042FBA04271EB0A01B9DBC4
:1036F000BAF1000FC0F2C380D7E90431834A934284
:1037000000F0ED807A88B6F9080092B242EA0040F3
:10371000984702460B4652EA030100F0B080002BA6
:1037200080F2D180B4EB020E6AEB030A38F939302B
:10373000C7E902EA002B95DB716903EB430201EB59
:10374000C202D2E90270BE457AEB000C4FEA430296
:1037500088DBB4462CF8083F06E003EB430001EB9E
:10376000C0005A00D0E90270BE451A447AEB00004E
:1037700001EBC20404DB31F93230A446002BECDA51
:1037800028F83930009BACF80030B3881C043FF5B2
:103790006DAF3369EFF3108272B6D3E8CF0F01211A
:1037A0000028FAD1C3E8401F0028F6D1BFF35F8F8D
:1037B0004FF6FF74B0880023316900B2B480C1E8CD
:1037C0008F3F82F310889842FFF650AF0746A94614
:1037D000746906F1080807EB470E04EBCE03D3E942
:1037E0000250B6F90830C446002B13DBB2460097EE
:1037F00004E034F936309446002B09DB03EB430632
:1038000004EBC602D2E90271BD4270EB0101F0DAAD
:103810005646009FACF8007034F93E7024F83E30F4
:10382000002FD8DAB3794D46002B3FF423AF0023A5
:10383000B371B6F9083006F10808581C3DD01A4695
:10384000776903E08046591C3FF416AF03EB430150
:1038500007EBC100B0F802C01C461CF4004F9E46A6
:1038600037F93130EED0944280ED028B05D0A8F8C4
:103870000030328927F8312034817246E3E738F886
:10388000393033813369EFF3108272B6D3E8CF0F4A
:1038900001210028FAD1C3E8401F0028F6D1BFF368
:1038A0005F8F7388316928F83930009B738000235B
:1038B000C1E88F3F82F31088D4E640BF05B0BDEC6D
:1038C000028BBDE8F08F2846CDE9022300F04EFAC6
:1038D000029A039B10EB020E43EB010A26E708460F
:1038E0000B69029198470028C9D00299D1E90023B9
:1038F00011E700BFAFF30080FFFFFFFFFFFFFFFFF7
:1039000000800B40D41E002000000B402136001028
:103910000B4808B50368EFF3108172B6D3E8CFCF38
:103920000122BCF1000FF9D1C3E84C2FBCF1000F0C
:10393000F4D1BFF35F8FFCF72FFE0020002108BDFC
:10394000982100202DE9F84F364C25692DB1BDE8AE
:10395000F84F0A213448FFF70FBEDFF8E480032157
:10396000404600F0F1F90326C4F80C80FFF79AFBFB
:103970004FF0504C2D4B267003442361DCF800308F
:103980000F216370636961801D834FF00405A3F804
:1039900078504FF00505A3F890504FF00605A3F8B6
:1039A000A8504FF007050E214FF6FF7208274FF081
:1039B0000A0EA3F8C0504FF001094FF00C0C4FF065
:1039C000020B4FF0090A0D204FF00B05A3F8681108
:1039D0001749A280A3F808E1A160A3F848B0A3F8B2
:1039E000F0A0A3F82051A3F838C1A3F85001A3F820
:1039F0003090A3F86060A3F8D8701A800D4B304661
:103A0000C8F820700C49DC60FFF70CFC49463046D2
:103A1000FFF7C6FB094B0A211F640348BDE8F84FB6
:103A2000FFF7AABD54120020982100202416002080
:103A3000FFFF1000D41E00202136001000200B4094
:103A400000000B400048704754120020F8B59DF864
:103A50002050044617461E4635B900F08FF98742BC
:103A600066EB010100295CDB2169EFF3108372B67C
:103A7000D1E8CF0F01220028FAD1C1E8402F002859
:103A8000F6D1BFF35F8FB4F90220656902EB420102
:103A9000002A4FEAC10C206905EBC10139DB35F87A
:103AA0000CE0A4F802E04FF0000EC0E88FEF83F3C3
:103AB00010884888069B0130C0F30E00012838BFEB
:103AC00001200B61079B48804B61C1E9027640EA07
:103AD00002402369EFF3108172B6D3E8CF7F01264D
:103AE000002FFAD1C3E8476F002FF6D1BFF35F8FE5
:103AF000A38825F80C30A2802369C3E88FEF81F3F7
:103B000010880122E368217803F501538A405A6046
:103B1000F8BD0022C0E88F2F83F310884FF0FF30EC
:103B2000F8BD2846F8BD00BF0146F0B50069EFF3C7
:103B3000108772B6D0E8CF5F0124002DFAD1C0E81B
:103B4000454F002DF6D1BFF35F8FB1F902E04C690C
:103B50000EEB4E0CBEF1000F4FEACC05086904EBEA
:103B6000CC0C3CDB665B4E800026C0E88F6F87F391
:103B70001088BCF80200CCE902230130C0F30E002B
:103B8000012838BF0120059BACF80200CCF81030AA
:103B9000069B40EA0E40CCF814300B69EFF310821C
:103BA00072B6D3E8CFCF0127BCF1000FF9D1C3E83B
:103BB0004C7FBCF1000FF4D1BFF35F8F8B88635350
:103BC000A1F804E00B69C3E88F6F82F3108801222B
:103BD000CB68097803F501538A405A60F0BD002391
:103BE000C0E88F3F87F310884FF0FF30F0BD00BF73
:103BF00003464089B0EB214F37DD58690A1402EBC8
:103C0000420210B500EBC2001C69EFF3108C72B6D3
:103C1000D4E8CFEF0122BEF1000FF9D1C4E84E2F56
:103C2000BEF1000FF4D1BFF35F8F428889B292B228
:103C30008A4207D000221B69C3E88F2F8CF31088BB
:103C4000002010BD42F40042428001210022186988
:103C50009971C0E88F2F8CF310881C78DA680846B9
:103C600002F50153A140596010BD0020704700BF0C
:103C7000407870472DE9F04306460D4683B0EFF3D8
:103C80000584E4B23CB12D4B5A6AAA421CD20020F2
:103C900003B0BDE8F0832A4FD7F80C9097F8008066
:103CA000484600F063F808F1040859F828301B1A58
:103CB000301A65EB0101984271F1000110DB20BF61
:103CC0001E4B5A6AAA42E2D314BF012400249B6A05
:103CD000B34234BF204644F0010003B0BDE8F08396
:103CE00000F04CF8864265EB0101002914DB154B0E
:103CF0003846CDE9003432462B46FFF715FF011E4A
:103D00000ADD0E4B5A6AAA4216D39B6AB34211D3FC
:103D10000B48FFF76DFFB6E7084B5C6AAC42B6D3C1
:103D2000641B18BF01249B6AB34234BF204644F091
:103D30000100ADE7AA42EBD120BFE9E700000B404C
:103D4000541200201139001010B4054B054C064ADE
:103D5000A04214BF1846581C5DF8044BFFF736B953
:103D6000441A002000800B40B47200100346416AE0
:103D70000A46986A596A8A42FAD17047034B596ACF
:103D80000A46986A596A9142FAD1704700000B407E
:103D900070B4039D04682D0345EA03451B4B002CBA
:103DA000B3FBF1F3B2FBF3F61FDB194A194B904258
:103DB00014BF4FF480424FF40042174C1A6003F5D1
:103DC00080531A60A36832EA0303FBD1212200F575
:103DD00040530433016086601A600268002AFCDAEE
:103DE0000822C5601A6070BC7047036803F03F0387
:103DF0008B42DAD18368C3F30B03B342D5D1C368D6
:103E000003F4EE23AB42D0D1EDE700BF001BB700B7
:103E100000800540002002400000024030B44FF016
:103E200080441C4B1C60E0B11B4CA3F54053DC618B
:103E30001A4C40F0010044401C62596298624FF0F5
:103E400080454FF0E061134B1548164C1D608460AF
:103E500019604AB930BC4FF00042A3F580531A6094
:103E60007047114BD861EAE74FF47A7303FB02F213
:103E7000B2F1807F2ABF6FF07F4313461A464FF09E
:103E800080410A4C08482360094B426030BC1960ED
:103E9000704700BF00B00D40D3C007B02D3FF84FB2
:103EA00000A00140F3FFFF0100800D40AC1E002088
:103EB00000A00D40012300EB4000800000F1804095
:103EC00000F5841041600360704700BF002370B5A7
:103ED000DB8A04460D46002242E800F2520254BF3B
:103EE0001021042144F25220984786462B46224650
:103EF000F446BDE870400A214FF48170604700BF6E
:103F00000023DB8A002242E800F2520201D4102191
:103F100018470421184700BF08B503460846191E74
:103F200002DB1AB140F03000FFF7D0FF40F0200074
:103F3000FAE700BF034AD2F82838002BFBD0BFF3C2
:103F40005F8F704700000E400021044B044ABFF30E
:103F50005F8F43F8041B9342F9D170470C080E4061
:103F60002C080E4010B44FF48D704FF42A64064AAA
:103F7000064B07491460D06019605368002BFCDAC7
:103F80005DF8044B704700BF0080044000A004406F
:103F900000B0FA00F8B504460D46EFF3108772B68C
:103FA0000C4B9B6853F82060B14204D00A4B9E42F0
:103FB0000BD200F0E3F9074B9B6843F82450BFF3A2
:103FC0005F8F87F310883046F8BD044B9E42F2D3D2
:103FD000EFE700BF00ED00E0100100102401001029
:103FE00003BD00BF10B5044600F0DEF92346BDE86E
:103FF00010401847F0B5054687B0192017460E4601
:10400000FFF7E4F8002104461920FFF7C9F8002162
:10401000CDE9046503970026002701224FF05043A5
:104020008C46CDE900670292A9B11A6D9507FCD5BF
:10403000596540BF1A6DD00703D420BF1A6DD2074F
:10404000FBD59A6D8A420BD04FF0000C0DEB8C0221
:104050001168E9E79A6D1A6DD607FBD440BFE4E713
:104060000CF1010CBCF1060FF0D12146192007B06C
:10407000BDE8F040FFF794B80C4B0D4A93420ED3C5
:104080009C4603F2F4710B4A9268CCF8F4070A4894
:10409000CCF8F837CCF8FC070848FFF7ABBF4FF077
:1040A000FF3340F2F3719C46EDE700BF00080820A3
:1040B0000000082000ED00E0E53F0010E13F0010A7
:1040C000F8B504463A4E0F46FEF764FFB17896F90C
:1040D000003001F00101DB0F43EA41032342327853
:1040E00056D096F90130C2F38011DB0F41EA43014B
:1040F000214273784FD0C3F38015C2F3401141EAD7
:10410000450121424AD0C3F34015C2F3001141EAF0
:104110004501214245D0C3F30015C2F3C00141EA75
:104120004501214240D0C3F3C005C2F3800141EAFA
:104130004501214212D0C3F38005C2F3400141EA98
:104140004501214219D003F0020502F001031D438D
:10415000254015D0B7B11748FEF704FF0225042308
:10416000E10744BF1A433270A20702D572781343A5
:104170007370FEF721FF2846F8BD01250223EFE703
:104180000123EDE76FF00805FEF716FF2846F8BD9E
:1041900007258023E4E706254023E1E705252023C2
:1041A000DEE704251023DBE703250823D8E700BF5B
:1041B000981A0020D8720010F8B5431E0A3311D89F
:1041C00010F0070300F108046BD0A3F10902A2422A
:1041D00008D31030C41AFDF787FB374922460E6812
:1041E0002EBB0CE0FDF780FB33490A6832B1002694
:1041F000FEF782FAFCF74EF83046F8BD14462F4B16
:10420000002558071CBF073323F0070318462C4E20
:1042100026F007060E602B49F31AC1E900052A496A
:10422000C6E900550B60C0E9006328490B60002A0D
:10423000DDDB002CDBD0254F3D68A542D7D3214BD9
:1042400018461B6803E01A6822B1184613465968DD
:10425000A142F8D3B342CAD01E46A1EB040C56F8D3
:10426000082BBCF1100F026007D9214603EB040EA6
:10427000CEF804C01A51C0F800E00024124A6D1AAA
:10428000106841F000418542114838BF156002684E
:10429000596001321C603D600260FEF72DFA304625
:1042A000F8BDFDF721FB044922460E68002EA6D07A
:1042B000002CC0DA9BE700BF041F0020A4210020CF
:1042C0009C21022074220220442202203422022057
:1042D0005022022090B338B550F8043C0446002B1D
:1042E00000DB38BD50F8082C002AFAD123F0004337
:1042F00040F8043CA0F10805FDF7F6FA1A4854F816
:10430000041C0268194B0A4402601A461B689D424D
:10431000FBD8506802EB000C654510D0681883424A
:104320001DD044F8083CAA4218BF1560104A136813
:1043300001331360BDE83840FEF7DEB97047014431
:10434000501883425160F1D10A4800689842EDD07C
:104350001546D3E900400144C5E90041E3E70548BB
:1043600000688342F5D1DCE7342202207422022067
:1043700054220220041F0020704700BF08B50148E6
:10438000FEF7F0FDEC72001038B5054C054DAC425F
:1043900004D254F8043B9847AC42FAD338BD00BF6E
:1043A000E87100102872001038B5054C054DAC427C
:1043B00004D254F8043B9847AC42FAD338BD00BF4E
:1043C000147200102872001010B40748074C084BF4
:1043D000084A094904601A608B6832EA0303FBD17A
:1043E0005DF8044B704700BF002002407F3BEFEFB9
:1043F00000300240F6FFF30300000240044BDB6C88
:10440000B3F5004F03D14FF48022024BDA647047BA
:1044100000001150002011504FF0E022044BD2F860
:10442000881D0B43C2F8883D10EE3004704700BF72
:10443000030330006FF06041044B054A1960936834
:10444000DB4333F06043FAD1704700BF00300240D5
:104450000000024010B545F25320FFF751FDBDE8C2
:10446000104003460420184710B545F25320FFF7CB
:1044700047FDBDE81040034601201847FEF740BE47
:104480001449154B70B55C1AA610442E324628BF4D
:104490004422124D9200284602F0D6FDB4F5867FE4
:1044A00013D80F4AC6F1440012D02B19410803EB70
:1044B000C101C3E9002208338B42FAD1C30704D5F6
:1044C00020F00100304445F82020064B9D6070BD6F
:1044D0004320F8E700000010100100100000002049
:1044E0001101001000ED00E0002370B52B4C82B0EC
:1044F000C4F88430FFF736FD0122294BDA63636C80
:10450000012BFCD10321264A244B11639C6B012C07
:10451000FCD10226052521460523224A2248009681
:10452000FFF736FC21462B46204A21480095FFF72D
:104530002FFC0022042031461E4BFEF7A5FC21462D
:10454000284600221C4BFEF79FFC00220820114643
:104550001A4BFEF799FC002209201146174BFEF773
:1045600093FC002206201146134BFEF78DFC00221F
:10457000114B07201146FEF787FC0420FEF7ECFCE8
:1045800000240F4BA3FB0035AD0CE0B229460134EB
:10459000FFF790FC062CF8D102B070BD000001407E
:1045A00000300140002F685900000540008C86470C
:1045B00000800540001BB70080D1F008006CDC02D1
:1045C00083DE1B4300B9704700F018B910B5094BE2
:1045D00084B01C684CB1034600914FF0FF3203A930
:1045E0000548A047012004B010BD00F049F920465D
:1045F00004B010BDA81E0020C545001000BEFDE798
:1046000008B5FFF7FBFF00BF38B5064C064DFFF7B6
:10461000BBFEAC4204D254F8043B9847AC42FAD3F8
:1046200038BD00BF287200103472001003680846BD
:10463000114618472DE9F0411546427D0746884648
:10464000002A46D0002D1DDD0B780A2B23D0012D2A
:104650004FF0000C18D04646012416F8012F2146D1
:104660000A2A04F1010422D0A542F6D165450BDCEB
:1046700008EB050313F8013CA3F10D03B3FA83F330
:104680005B093B75BDE8F0813B68A5EB0C0108EBCD
:104690000C009847ECE7037D002BD8D1036802217A
:1046A0000F489847012DE3D04FF0010CD3E716F8DF
:1046B000013C0D2BD8D08C4508EB0C00A1EB0C0174
:1046C00001DA3B689847022105483B689847A446B1
:1046D000CAE7294640463B68BDE8F041184700BF9D
:1046E000307400102DE9F04782B00D4691461C460B
:1046F0000646FFF743FB4FF0FF3C6FF000472E4AA2
:10470000821841F10003944577EB03013CBF6246F8
:104710003B462A4802F05CFD6B1C804640D00CB33F
:10472000274F284B1C68B4B1B9F1000F1CD1DFF83A
:104730009C9001E0246974B12368002BFAD0D9F869
:1047400000300BB19C42F5D120462A463146B8478D
:104750002469002CF0D1B8F1000F26D1284602B010
:10476000BDE8F087184FDCE74FF00A0ADFF85C90ED
:1047700002E02469002CEED02368002BF9D0D9F890
:1047800000300BB1A342F4D12A4631462046B84747
:10479000012220460DF107018DF807A0B847E8E790
:1047A000304602F0C7FC0546B9E7044802F004FDB4
:1047B000284602B0BDE8F08740420F00AC1200204E
:1047C000354600109C1A00202D460010A41A002027
:1047D000084A136823B90AE003F110021B6933B1D8
:1047E0008342F9D129B9186910601961704701B184
:1047F000106070479C1A002000F06EBAF0B583B0CC
:1048000006468DF80700FFF7B9FA4FF0FF356FF055
:104810000044174A821841F10003954274EB0301EA
:104820003CBF23462A46134802F0D2FC124B0746EF
:104830001C689CB1114D01E024697CB12368002BF8
:10484000FAD02B680BB19C42F6D1204601220DF123
:104850000701FFF7EFFE2469002CEFD117B93046AE
:1048600003B0F0BD034802F0A7FC304603B0F0BD32
:1048700040420F00AC1200209C1A0020A41A002015
:1048800038B5044602F056FC012305461A46204678
:104890002946FFF727FF084B1C682CB163682BB132
:1048A00098472469002CF9D1284638BD2469002C8A
:1048B000F4D1284638BD00BF9C1A0020704700BFC5
:1048C0000022014B1A707047BC2202204B79FF2B4B
:1048D0000BD1887948B9CB79012B07D1082A05D9A2
:1048E000034B8A7809201A7070470020704700BF78
:1048F000BC22022001207047012901D0012070470D
:1049000008B5104B91881B78994201D0002008BD52
:104910005378012B08D0022BF8D1002164220846DD
:10492000FFF77CFA012008BD5188CB0548BF480A33
:10493000C1F3402258BF4FF0FF3001F07F01FFF775
:10494000EBFA00BFBC22022000487047FC74001044
:10495000012907D15378012B02D19388072B03D06B
:1049600000207047012070471146A623014A01F03C
:1049700039BA00BF547400100346012201481A706E
:10498000704700BF3474001008B50B68B3F5966F1C
:1049900000D008BD00224FF0FF301146FFF7BCFAEF
:1049A000024A034B10601960704700BF381A00209C
:1049B0003C1A0020184B70B51A68002A28D0EFF373
:1049C000108172B6D2E8CF4F0120002CFAD1C2E894
:1049D000440F002CF6D1BFF35F8F00220F4C1868F4
:1049E00059602270C0E88F2F81F3108800240025C1
:1049F0000B4E3078FEF7EAFB20B900240025204654
:104A0000294670BD3078FEF7F1FB2046294670BD7F
:104A10004FF47A740025EBE7CC1E0020BE22022062
:104A2000BD220220014B1878FEF7E0BBBD22022018
:104A300038B5044600200D4601F004FBA8B3002061
:104A400001F016FB88B3FFF799F94FF0FF3E6FF0C6
:104A5000004C174A821841F1000396457CEB030194
:104A60003CBF72466346134802F0B2FBE8B1002037
:104A700001F0E8FA58B900214FF0FF3000F00AFDCC
:104A80006FF002040B4802F097FB204638BD00206F
:104A900001F0EEFA0028EED021462A46002001F06F
:104AA000F1FA04460028EDD1EAE76FF00204ECE7E2
:104AB00040420F009C21002008B5FFF75FF94FF03E
:104AC000FF3E6FF0004C0F4A821841F100039645FB
:104AD0007CEB03013CBF724663460B4802F078FB57
:104AE00070B14FF0FF30002100F0D4FC002001F045
:104AF00011FB0028F5D1BDE80840034802F05CBB7B
:104B000008BD00BF40420F009C2100202DE9F84362
:104B100080460F46FFF732F94FF0FF356FF0004443
:104B2000334A821841F10003954274EB03013CBF04
:104B30002A4623462F4802F04BFB08B9BDE8F8830C
:104B4000002001F07FFA002847D0002F40DD00252B
:104B5000DFF8A890284E13E02246002001F020FB49
:104B6000002104464FF0FF3000F094FC002001F0DB
:104B7000D1FAFFF703F9C9E900012544AF4227DD67
:104B8000002001F02DFB7C1B8442A8BF044608EBEB
:104B90000501002CE0D121464FF0FF3000F07AFCF7
:104BA000204601F0B7FA204601F04CFA80B12046C9
:104BB00001F016FB0028E1D1FFF7E0F8D9F800304A
:104BC000D9F804209B1942F1000283428A41D5D2D0
:104BD0000848BDE8F84302F0EFBA00200021074B77
:104BE000C3E90001BDE8F843024802F0E5BA00BF9E
:104BF00040420F009C21002020A107003814002013
:104C000030B5002185B02E4802F0E6FAF0B92D4B00
:104C10001A68CAB1EFF3108172B6D2E8CF5F0124EF
:104C2000002DFAD1C2E8454F002DF6D1BFF35F8FBA
:104C3000254C1D6822785960D3B201222270C5E844
:104C40008F0F81F31088CBB105B030BD00214FF03C
:104C5000FF3000F01FFC002001F00AFA044618485B
:104C600002F0AAFA002CEFD0184B1B68002BEBD0F7
:104C7000174A106805B0BDE830401847FEF7E2FE5D
:104C80000446FFF77BF84FF0FF3C6FF0004510F54E
:104C90007A7241F10003944575EB030138BF2B464E
:104CA0004FF000014FF0010520460A4C38BF624624
:104CB000CDE901150094FEF7C9FE05B030BD00BF77
:104CC0009C210020CC1E0020BE220220381A002089
:104CD0003C1A0020B54900104FF0504330B585B064
:104CE0001C68FEF7AFFEFEF7C3FFA04202D0002013
:104CF00005B030BD00212A4B08461B7801F038FD75
:104D000028480368002B47D00120FEF721FC03460A
:104D1000254C2649C0B22370FEF784FA2078012181
:104D2000FEF73EFA0E20FEF76DFA40BB204B012540
:104D3000C3E90000FEF786FE0446FFF71FF84FF0B8
:104D4000FF3E6FF0004C10F57A7241F1000396457A
:104D50007CEB03014FF000012046164C3CBF72462D
:104D60006346CDE901150094FEF770FE0028BEDB16
:104D700001211148FFF72CFD012005B030BD0120B5
:104D8000FEF7A6F901460A48FEF742FC00220E2073
:104D90000A49FEF777FAEBE7FEF71EFCB4E700BF1F
:104DA000107600109C210020BD220220014C001032
:104DB000CC1E0020B54900106C120020254A0010BE
:104DC00000487047987500100048704744750010FF
:104DD00038B5184B04461A780AB344B940F2094270
:104DE0004FF44173144D6A8013482B8038BD052C55
:104DF0001DD8124B104D53F82410284600230139BA
:104E000003E0132B20F8022F0ED011F8012F0133ED
:104E1000DBB2002AF5D15B0043F44073E4E71121D3
:104E2000184600F025F8D8E74FF44A73DCE7002075
:104E300038BD00BFB8210220701A00202C75001068
:104E400000B545F247308BB0FFF75AF80122034610
:104E5000092101A89847DDE90332044912BA1BBAB7
:104E6000C1E900230BB05DF804FB00BF90210020D6
:104E7000012901F1FF3300F0B3805D490A784FEA60
:104E8000121C9F2A8CBF0CF1370C0CF1300C012B3B
:104E900080F800C000F0A78002F00F02092A8CBF42
:104EA00037323032022B427000F09D804A784FEA50
:104EB000121C9F2A8CBF0CF1370C0CF1300C032B09
:104EC00080F802C000F08F8002F00F02092A8CBF28
:104ED00037323032042BC27000F085808A784FEA76
:104EE000121C9F2A8CBF0CF1370C0CF1300C052BD7
:104EF00080F804C077D002F00F02092A8CBF373245
:104F00003032062B42716ED0CA784FEA121C9F2AAB
:104F10008CBF0CF1370C0CF1300C072B80F806C05D
:104F200061D002F00F02092A8CBF37323032082BD1
:104F3000C27158D00A794FEA121C9F2A8CBF0CF11B
:104F4000370C0CF1300C092B80F808C04BD002F064
:104F50000F02092A8CBF373230320A2B427242D0FC
:104F60004A794FEA121C9F2A8CBF0CF1370C0CF1C6
:104F7000300C0B2B80F80AC035D002F00F02092A42
:104F80008CBF373230320C2BC2722CD08A794FEA68
:104F9000121C9F2A8CBF0CF1370C0CF1300C0D2B1E
:104FA00080F80CC01FD002F00F02092A8CBF3732E4
:104FB00030320E2B427316D0CA7911099F2A8CBF4A
:104FC000373130310F2B81730DD002F00F02092AD7
:104FD00094BF30323732102BC27318BF103002D05A
:104FE000002303707047184400230370704700BF0C
:104FF0009021002070B500F02DF90C234026194CAB
:10500000FF22A3670E201849FEF73CF93246002123
:10501000164801F0CBFF0125002380211348144AD4
:10502000418445700683068782604360136042F8BE
:10503000043C80F8213080F83B3043620D4B4FF048
:105040000056C360C362803B836202F0C9F84FF42C
:1050500080320949094B25642846E664C4F890105B
:10506000DA6470BD00001150A5030020A81A0020CA
:10507000840010500001105010D001000020115089
:1050800001210E20FEF78CB800220248114600F0E4
:1050900001B900BFC81A0020044B197021B14FF4A8
:1050A0000032034BC3F89020704700BFB9220220A2
:1050B000002011500B785B0602D14B78052B00D0F5
:1050C00070474B88014ADBB21360704700001150F3
:1050D000CB782DE9F04103F0030EBEF1010FC3F3CD
:1050E00001005BD0002791F802C0344C0CF07F0225
:1050F0005600898806EBDC1304EB43134FEADC15FA
:10510000D876C1F30A0185F0010083F802C0198343
:105110005870DF70D3008DBB2948043304EB821C28
:1051200003EB0008CCF808801F5082B3254BD20057
:105130001344CCF80430244B3F311A6821F03F016E
:10514000BEF1020F08BF4900114419601F4B7719C7
:1051500004EB47179942FA602BD82E4404EB461310
:10516000D97E82F0A04282F480125B6842EA8162BA
:1051700042F000421A600120BDE8F081104804EBC3
:10518000821C0344CCF8283040F832704AB900221F
:105190000F4904EB4513D9605A60ECE70020BDE8E5
:1051A000F081D20002F1A04202F58012CCF8242056
:1051B000C1E7FFF7E3F8FA68CFE700BFA81A0020BD
:1051C0008000105004001050B01E0020FF0F10503F
:1051D0000001105002F004B88C4608B5114607488B
:1051E0001A460CF07F034FEADC1C0CEB430C00EB7F
:1051F0004C1000F04FF8012008BD00BFA81A002095
:1052000011F07F0205D100290CBF02200120064BBE
:105210009866C909054B01EB420003EB40104FF4BF
:105220000062002101F0D0BF00201150A81A002018
:1052300011F07F0300D17047002205485B0003EBAB
:10524000D11300EB43106FF40061C27001F0BCBFDA
:10525000A81A00204FF0805209480A4908B50A4BA5
:1052600002600A609968C94311F08051FAD14FF485
:105270008052064801F09AFE0922054B5A6708BD84
:1052800000200240003002400000024000001050A8
:105290000000115000234FF0010C10B580F81AC027
:1052A0008282C3820161044601F082FF20B14FF483
:1052B0000032074BC3F89020204601F075FF10B173
:1052C0000123237710BD2046BDE8104001F068BFE0
:1052D000002011502DE9F04100241D4E05462346C3
:1052E0003278DFF878801B4F0DE03B6813EB4413F6
:1052F00024D0DB682846984732780134E4B2511C48
:10530000A142234606DBA242A3EB0203EDD808EB41
:105310004313EEE7542200210F4801F047FE4FF0FF
:10532000FF330D482022041D4360C4E90133E360CC
:10533000FF21BDE8F041143001F038BE4FF0E0230A
:10534000D3F8F03DDB0700D500BEBDE8F08100BF1B
:10535000B82202208014002050160020AC750010E6
:10536000704700BF704700BF0020704700207047A3
:10537000704700BF704700BF704700BF704700BF55
:10538000024B5878003818BF012070475016002093
:10539000024B1878C0F38000704700BF5016002001
:1053A0002DE9F047DFF8E4A09AF80030FF2B56D142
:1053B0000E4600293ED0002154220746294801F01C
:1053C000F5FD0022284C294B20461A70FEF704F9FF
:1053D000274B28481C60284CFEF70CF9204601F0AA
:1053E000ABFD264A264B146023B12648FFF7C4FACA
:1053F000254B18600024234D23462A78DFF890902F
:10540000DFF884800EE0D8F8003013EB441311D09D
:105410005B687BB198472A780134E4B2511CA14201
:10542000234611DBA242EED89B1A09EB43135B68BB
:10543000002BEFD14FF0E023D3F8F03DDB0700D590
:1054400000BE0020BDE8F087314638468AF800707B
:10545000FFF7D0FD0028EDD03846FFF711FE012000
:10546000BDE8F0875016002048160020BA2202201E
:10547000A41600209812002084120020A8160020F4
:1054800079490010B822022080140020A0120020C8
:10549000AC7500102DE9F04FDFF8C8928BB099F889
:1054A0000030FF2B00F0F180A84CA94DDFF8B0A22E
:1054B000DFF8B4B226687369EFF3108272B6D3E8EE
:1054C000CF0F01210028FAD1C3E8401F0028F6D1F0
:1054D000BFF35F8FB261304607A901F077FB00236D
:1054E0007269C2E88F3FB36983F31088002800F027
:1054F000CC809DF81D30013B072B00F27D83DFE857
:1055000003F0A7B1959D8E350A04089B002BD1D0DE
:1055100009989847CEE79DF8201001F07F0605EB2B
:10552000460000EBD11090F8343023F0010380F8EE
:10553000343090F8343023F0040380F83430002EF7
:1055400000F0A680037D9AF80020934280F09380BB
:10555000804A126812EB431300F090809E699DF818
:105560002120099B9DF81C00B047A3E79BF8003061
:10557000002B00F083809BF80030013BDBB28BF8FE
:1055800000309BF8003003F0FF00002B92D1704FE9
:105590009DF81C803B7843F001033B7097F8343052
:1055A00060F3000387F8343097F8343060F38203F7
:1055B00087F8343097F8353060F3000387F83530DA
:1055C00097F8353060F3820387F8353000F06CFCD3
:1055D0009DF8203003F06002602A6CD0402A7CD015
:1055E00003F01F03012B00F0C180022B00F081802B
:1055F000002B60D1202A00F0E981002A5BD19DF8C0
:105600002130092B57D8DFE813F0B001A201560072
:10561000C101560095016B0156006001F4002B7822
:10562000D9077FF547AFFFF7A9FE43E7EB78DA0725
:105630007FF540AF0898FFF795FE3BE72B78D8073A
:105640007FF538AF2878C0F3C000FFF795FE31E74B
:105650009DF81C00FFF73EFE00F01CFC9DF820307A
:10566000AB7027E79DF81C00FFF734FE00F012FC3A
:10567000FFF780FE1EE7501C984211DA4FF0E0233E
:10568000D3F8F03DDC0700D500BE0BB0BDE8F08FCD
:10569000099B9DF821209DF81C0000F019FC09E7EA
:1056A0009B1A2D4A02EB431358E7FFF78DFB024686
:1056B000002840F082814FF0E023D3F8F03DDE0770
:1056C00000D500BE9DF81C000021FFF799FD802148
:1056D0009DF81C00FFF794FDECE6204800F0E4FB89
:1056E0000121404608AAFFF733F900287FF4E2AE13
:1056F000E8E79DF8241011F0700FDCD101F07F066F
:1057000007EB4600164B00EBD1101B78007D7600AE
:10571000019698424FEAD116009659D35E1C8642F4
:10572000C0F26681C01A0C4B03EB4016002A00F051
:105730006381706900F0B8FB01214046736908AAD3
:10574000984700287FF4B6AEBCE700BFA81600203B
:105750005016002080140020AC7500105149001034
:10576000B8220220A0120020BA2202209DF8243084
:105770000F2BA7D8AE4A3B441B791278934232D301
:10578000511C99429EDBAB4E9B1A06EB4316706987
:1057900000F08AFB01214046736908AA9847002857
:1057A0007FF488AE9DF8203013F060068AD19DF812
:1057B00021300A3B012B85D800F076FB9DF8213083
:1057C0000A2B00F0F281404608A900F0F1FA71E6D8
:1057D000994B1B6803EB4016002A00F00D81002E48
:1057E0003FF470AFA5E7944A166816EB4316CED186
:1057F00068E77B789DF822609E4200F04F817B78BD
:10580000002B40F0BE817E70002E00F04581701E9E
:10581000C0B2FFF7D9FA0346002800F05F81427852
:10582000022A40F05B81C17903F10906C1F34012FD
:105830001201C1F3801142EA41123146387820F05A
:10584000300002433A705A88CDF80C809A180192C1
:10585000019B8B4240F2A4814A780B2A00F0AF8171
:105860000123042A40F03A810026019A0096521A38
:1058700092B202926E4A049312781DE06E4B1B683E
:1058800013EB461800F02A81029AD8F810300398DA
:105890000591984708280246059906F1010303D9A6
:1058A0000298904280F0FF80DEB2614B00961A7839
:1058B000531C9E4200F31281009BB242A3EB0202F2
:1058C000DCD85C4B03EB4218DEE77B7840468DF872
:1058D0001A300DF11A02012308A900F083FAE9E554
:1058E000BDF82200030A013B020AC0B20E2B3FF6AC
:1058F000E9AE01A151F823F00D5B0010A959001089
:10590000495B0010C5560010C55600102B5B0010F7
:10591000A9590010C5560010C5560010C5560010F4
:10592000C5560010C5560010C5560010C5560010CB
:10593000FF5A001008A800F0BDFA40469DF822105A
:10594000FFF7A2FB3B7843F002033B70B2E5BDF8E2
:105950002230012B7FF4B6AE3B78404623F008039B
:1059600008A93B7000F024FAA4E540463B789A0869
:1059700002F00202C3F340131343ADF81A300DF1E5
:105980001A02022308A900F02DFA93E5BDF822308F
:10599000012B7FF497AE3B78404643F0080308A9FB
:1059A0003B7000F005FA85E5022A3FF47EAEFFF772
:1059B000DDFC024600283FF485AE4046538808A926
:1059C00000F010FA00287FF475AD7BE69DF82430D6
:1059D0000F2B3FF677AE164A3B441B791278934261
:1059E0001DD2154A166816EB43167FF4A2AE69E67F
:1059F000002A7FF467AE00269DF8212002F0FD0307
:105A0000012B1BD0002A7FF456AE019B009A3B4429
:105A1000134493F834304046C3F34003ADE7511CC0
:105A20009942FFF64FAE034E9B1A06EB431680E6F3
:105A3000B8220220AC75001080140020BDF822307E
:105A4000B3B9012A99F8000000F08680FFF7D8FB6F
:105A5000019B009A3B44134493F8342042F0020225
:105A600083F8342093F8342042F0010283F8342084
:105A7000002E3FF41FAD706900F016FA7369012122
:105A800008AA40469847002000F00EFA97F83530F3
:105A9000DF073FF50FAD96E6FFF76CFC404608A91F
:105AA00000F086F906E5049B012B00F09E80002B98
:105AB00000F08A80002091F8028005E08CF80460F4
:105AC0005FFA80FC63457FD908EB000C57FA8CFC29
:105AD0009CF804E00130BEF1FF0FEFD04FF0E0235F
